:100000004E30840070300A128A1115200A128A11AB
:100010008317763084007E300A128A1115200A1266
:100020008A1183010A128A111D2864008001840A42
:1000300004060319003404061628803083160313BF
:100040008700013086001815813099008312031350
:100050009817181383160313181383120313181613
:1000600083160313981683120313A0010314A00D23
:1000700039280310003003180130A6001430A40002
:100080000530A500200883130A128A1169270A1275
:100090008A11013083120313A1002108A007113037
:1000A0002002031C54285528392806185828592896
:1000B000F4285A28061C5D285E285A28A00103143B
:1000C000A00D62281430A1002108A600C830A400A9
:1000D0000030A500200883130A128A1169270A122A
:1000E0008A1183120313200883130A128A115527D9
:1000F0000A128A110A128A11B0270A128A118B2851
:1001000020080A128A1155270A128A110A128A1126
:10011000B0270A128A118312031320088313A10047
:1001200021074E3E84000008A20001308407000829
:10013000A300C83022062304031D9F28A02880287E
:100140000130A1002108A00711302002031CA928BA
:10015000AA286228A0010314A00DAE281430A10023
:100160002108A6001430A4000530A50020080A12BA
:100170008A1169270A128A11831203132008831334
:100180000A128A1155270A128A110A128A11B027F7
:100190000A128A11D62820080A128A1155270A1233
:1001A0008A110A128A11B0270A128A1183120313C4
:1001B00020088313A10021074E3E8400143000065E
:1001C000031DE5280530840A0006031DE828E928F8
:1001D000CB280130A1002108A00711302002031C08
:1001E000F228F328AE285E2855280A128A11002822
:100E7E00AC00412F0C1E442F452F412F2C089900FA
:100E8E000800492F831203138C1E4E2F4F2F492F0C
:100E9E001A08AB002B088313542F0800A400240853
:100EAE004038A40040300A128A113F270A128A11D4
:100EBE0083120313240883130A128A113F270A127E
:100ECE008A110800A7000310003003180130A80093
:100EDE000310003003180130A90027084038A7007E
:100EEE002508AB002408AA0006300310AB0CAA0C90
:100EFE00FF3E031D7C2F2A08A8003F30AA002A08B7
:100F0E00A8052408A9003F30AA002A08A905270829
:100F1E000A128A113F270A128A1183120313280814
:100F2E0083130A128A113F270A128A11831203139E
:100F3E00290883130A128A113F270A128A11831273
:100F4E000313260883130A128A113F270A128A11E5
:100F5E0008000A128A1148270A128A1183120313F3
:100F6E00A400A5012408FA002508FB000A128A1124
:100F7E0048270A128A1183120313A400A50124081C
:100F8E00F6002508F7000A128A1148270A128A115C
:100F9E0083120313A400A5012408F8002508F90004
:100FAE001F307A05FA0000307B05FB003F307805D4
:100FBE00A40000307905A5007708A7007608A600E2
:100FCE00063084000310A60DA70D840BE92F24080C
:100FDE002604A80025082704A9007A08AA002A07D3
:100FEE004E3E8400280883138000840A290880005E
:020FFE000800E9
:02400E00323F3F
:00000001FF
