:100000000A128A11032880308316031387000130F7
:10001000860018158130990083120313981718135E
:10002000831603131813831203131816831603136E
:1000300098164130F2000030F3001E280310003003
:1000400003180130F7001430F5000530F60072088F
:100050000A128A11C5270A128A110130F207031801
:10006000F30A0030F30700307302031D39285130C2
:100070007202031C3C283D281E2883120313061815
:1000800042284328C6284130F2000030F3004828B7
:100090001C30F4007408F7006430F5000030F600FE
:1000A00072080A128A11C5270A128A110130F20752
:1000B0000318F30A0030F30700307302031D6228AF
:1000C00051307202031C6528662848280F30F00062
:1000D0000030F1006B280030F8000030F700753078
:1000E000F6003030F5000A128A1197270A128A1199
:1000F0000130F0020030031CF103F10271087004BA
:10010000031D832884286B284130F2000030F3005F
:1001100089281C30F4007408F7001430F50005300D
:10012000F60072080A128A11C5270A128A110130D4
:10013000F2070318F30A0030F30700307302031DBF
:10014000A32851307202031CA628A72889280F3043
:10015000F0000030F100AC280030F8000030F7006B
:100160007530F6003030F5000A128A1197270A120E
:100170008A110130F0020030031CF103F102710812
:100180007004031DC428C528AC2843283D280A1242
:040190008A110028A8
:100F1800FD008E2F831203130C1E932F942F8E2FF8
:100F28007D08990008007808770476047504031D85
:100F38009E2F9F2FA02FC42F0130F9000030FA00F8
:100F48000030FB000030FC007908F5027A08031C29
:100F58007A0FAF2FB02FF6027B08031C7B0FB52F3B
:100F6800B62FF7027C08031C7C0FBB2FBC2FF8029E
:100F78007808770476047504031DC32FC42FA02FA7
:100F88000800F8000310003003180130F9000310BE
:100F9800003003180130FA007608FC007508FB00E1
:100FA80006300310FC0CFB0CFF3E031DD52F7B08FD
:100FB800F9003F30FB007B08F9057508FA003F305F
:100FC800FB007B08FA0578080A128A118C270A1296
:100FD8008A1179080A128A118C270A128A117A084A
:100FE8000A128A118C270A128A1177080A128A11A2
:080FF8008C270A128A1108007F
:02400E00323F3F
:00000001FF
